{
  "transactions": [
    {
      "hash": "0x713af3db8b592c23c0de2dc3bbf867677a72ca3cff9b3bfb467547ff6d4f95f0",
      "transactionType": "CALL",
      "contractName": null,
      "contractAddress": "0x7f52576bf43a55f533972a238daa2e794cb9b87a",
      "function": "transfer(address,uint256)",
      "arguments": [
        "0x00267645F5677350F740da9C8586Ded87816D811",
        "1000000000000000000"
      ],
      "transaction": {
        "from": "0x00267645f5677350f740da9c8586ded87816d811",
        "to": "0x7f52576bf43a55f533972a238daa2e794cb9b87a",
        "gas": "0xa42b",
        "value": "0x0",
        "input": "0xa9059cbb00000000000000000000000000267645f5677350f740da9c8586ded87816d8110000000000000000000000000000000000000000000000000de0b6b3a7640000",
        "nonce": "0x3a",
        "chainId": "0xaa36a7"
      },
      "additionalContracts": [],
      "isFixedGasLimit": false
    }
  ],
  "receipts": [
    {
      "status": "0x1",
      "cumulativeGasUsed": "0x6c190a",
      "logs": [
        {
          "address": "0x7f52576bf43a55f533972a238daa2e794cb9b87a",
          "topics": [
            "0xddf252ad1be2c89b69c2b068fc378daa952ba7f163c4a11628f55a4df523b3ef",
            "0x00000000000000000000000000267645f5677350f740da9c8586ded87816d811",
            "0x00000000000000000000000000267645f5677350f740da9c8586ded87816d811"
          ],
          "data": "0x0000000000000000000000000000000000000000000000000de0b6b3a7640000",
          "blockHash": "0xf0ca2cf3cc6ad2804861307f4cd58bded7e9d41ae86f52c22e01575dc4aa163b",
          "blockNumber": "0x9c0620",
          "blockTimestamp": "0x6989f664",
          "transactionHash": "0x713af3db8b592c23c0de2dc3bbf867677a72ca3cff9b3bfb467547ff6d4f95f0",
          "transactionIndex": "0x58",
          "logIndex": "0x95",
          "removed": false
        },
        {
          "address": "0x7f52576bf43a55f533972a238daa2e794cb9b87a",
          "topics": [
            "0xddf252ad1be2c89b69c2b068fc378daa952ba7f163c4a11628f55a4df523b3ef",
            "0x00000000000000000000000000267645f5677350f740da9c8586ded87816d811",
            "0x00000000000000000000000000267645f5677350f740da9c8586ded87816d811"
          ],
          "data": "0x0000000000000000000000000000000000000000000000000de0b6b3a7640000",
          "blockHash": "0xf0ca2cf3cc6ad2804861307f4cd58bded7e9d41ae86f52c22e01575dc4aa163b",
          "blockNumber": "0x9c0620",
          "blockTimestamp": "0x6989f664",
          "transactionHash": "0x713af3db8b592c23c0de2dc3bbf867677a72ca3cff9b3bfb467547ff6d4f95f0",
          "transactionIndex": "0x58",
          "logIndex": "0x96",
          "removed": false
        }
      ],
      "logsBloom": "0x08000000000000000000000000000010000000000000000000000001000000000000000000000000000000040000000000000000000000000000000000000000000000000000000000000008000000000000000000000000000000000000000000000000000000000000000000000000000000000000000000000010000000000000000000000000000000000000000000000000000000000000000000000000000000000000000000000000000000000000000000000000000000000000000000000002000000000000000000000000000000000000000000000000000000000000000000020400000000000000000000000000000000000000000000000000",
      "type": "0x2",
      "transactionHash": "0x713af3db8b592c23c0de2dc3bbf867677a72ca3cff9b3bfb467547ff6d4f95f0",
      "transactionIndex": "0x58",
      "blockHash": "0xf0ca2cf3cc6ad2804861307f4cd58bded7e9d41ae86f52c22e01575dc4aa163b",
      "blockNumber": "0x9c0620",
      "gasUsed": "0x7041",
      "effectiveGasPrice": "0x407257c9",
      "from": "0x00267645f5677350f740da9c8586ded87816d811",
      "to": "0x7f52576bf43a55f533972a238daa2e794cb9b87a",
      "contractAddress": null
    }
  ],
  "libraries": [],
  "pending": [],
  "returns": {},
  "timestamp": 1770649190107,
  "chain": 11155111,
  "commit": "17bdbdd"
}