{
  "transactions": [
    {
      "hash": "0xff9386aab710af8e3c8fa35ec21d51774da7537ce7fc6d49a3e0ef35d517f4da",
      "transactionType": "CALL",
      "contractName": null,
      "contractAddress": "0x7f52576bf43a55f533972a238daa2e794cb9b87a",
      "function": "transfer(address,uint256)",
      "arguments": [
        "0x00267645F5677350F740da9C8586Ded87816D811",
        "1000000000000000000"
      ],
      "transaction": {
        "from": "0x00267645f5677350f740da9c8586ded87816d811",
        "to": "0x7f52576bf43a55f533972a238daa2e794cb9b87a",
        "gas": "0xa42b",
        "value": "0x0",
        "input": "0xa9059cbb00000000000000000000000000267645f5677350f740da9c8586ded87816d8110000000000000000000000000000000000000000000000000de0b6b3a7640000",
        "nonce": "0x39",
        "chainId": "0xaa36a7"
      },
      "additionalContracts": [],
      "isFixedGasLimit": false
    }
  ],
  "receipts": [
    {
      "status": "0x1",
      "cumulativeGasUsed": "0x1215223",
      "logs": [
        {
          "address": "0x7f52576bf43a55f533972a238daa2e794cb9b87a",
          "topics": [
            "0xddf252ad1be2c89b69c2b068fc378daa952ba7f163c4a11628f55a4df523b3ef",
            "0x00000000000000000000000000267645f5677350f740da9c8586ded87816d811",
            "0x00000000000000000000000000267645f5677350f740da9c8586ded87816d811"
          ],
          "data": "0x0000000000000000000000000000000000000000000000000de0b6b3a7640000",
          "blockHash": "0x04894a96b9959198c255cad52099251b4e1ebdb6d061a1c20af473f47098a9bc",
          "blockNumber": "0x9c04ef",
          "blockTimestamp": "0x6989e7d0",
          "transactionHash": "0xff9386aab710af8e3c8fa35ec21d51774da7537ce7fc6d49a3e0ef35d517f4da",
          "transactionIndex": "0x5d",
          "logIndex": "0xb3",
          "removed": false
        },
        {
          "address": "0x7f52576bf43a55f533972a238daa2e794cb9b87a",
          "topics": [
            "0xddf252ad1be2c89b69c2b068fc378daa952ba7f163c4a11628f55a4df523b3ef",
            "0x00000000000000000000000000267645f5677350f740da9c8586ded87816d811",
            "0x00000000000000000000000000267645f5677350f740da9c8586ded87816d811"
          ],
          "data": "0x0000000000000000000000000000000000000000000000000de0b6b3a7640000",
          "blockHash": "0x04894a96b9959198c255cad52099251b4e1ebdb6d061a1c20af473f47098a9bc",
          "blockNumber": "0x9c04ef",
          "blockTimestamp": "0x6989e7d0",
          "transactionHash": "0xff9386aab710af8e3c8fa35ec21d51774da7537ce7fc6d49a3e0ef35d517f4da",
          "transactionIndex": "0x5d",
          "logIndex": "0xb4",
          "removed": false
        }
      ],
      "logsBloom": "0x08000000000000000000000000000010000000000000000000000001000000000000000000000000000000040000000000000000000000000000000000000000000000000000000000000008000000000000000000000000000000000000000000000000000000000000000000000000000000000000000000000010000000000000000000000000000000000000000000000000000000000000000000000000000000000000000000000000000000000000000000000000000000000000000000000002000000000000000000000000000000000000000000000000000000000000000000020400000000000000000000000000000000000000000000000000",
      "type": "0x2",
      "transactionHash": "0xff9386aab710af8e3c8fa35ec21d51774da7537ce7fc6d49a3e0ef35d517f4da",
      "transactionIndex": "0x5d",
      "blockHash": "0x04894a96b9959198c255cad52099251b4e1ebdb6d061a1c20af473f47098a9bc",
      "blockNumber": "0x9c04ef",
      "gasUsed": "0x7041",
      "effectiveGasPrice": "0x43523922",
      "from": "0x00267645f5677350f740da9c8586ded87816d811",
      "to": "0x7f52576bf43a55f533972a238daa2e794cb9b87a",
      "contractAddress": null
    }
  ],
  "libraries": [],
  "pending": [],
  "returns": {},
  "timestamp": 1770645456797,
  "chain": 11155111,
  "commit": "17bdbdd"
}