{
  "transactions": [
    {
      "hash": "0x731594d423c4a55d8db3bc274595148091b31e70694bef9dc0ac4555addad1b0",
      "transactionType": "CALL",
      "contractName": null,
      "contractAddress": "0x7f52576bf43a55f533972a238daa2e794cb9b87a",
      "function": "transfer(address,uint256)",
      "arguments": [
        "0x00267645F5677350F740da9C8586Ded87816D811",
        "1000000000000000000"
      ],
      "transaction": {
        "from": "0x00267645f5677350f740da9c8586ded87816d811",
        "to": "0x7f52576bf43a55f533972a238daa2e794cb9b87a",
        "gas": "0xa42b",
        "value": "0x0",
        "input": "0xa9059cbb00000000000000000000000000267645f5677350f740da9c8586ded87816d8110000000000000000000000000000000000000000000000000de0b6b3a7640000",
        "nonce": "0x38",
        "chainId": "0xaa36a7"
      },
      "additionalContracts": [],
      "isFixedGasLimit": false
    }
  ],
  "receipts": [
    {
      "status": "0x1",
      "cumulativeGasUsed": "0x9a10ab",
      "logs": [
        {
          "address": "0x7f52576bf43a55f533972a238daa2e794cb9b87a",
          "topics": [
            "0xddf252ad1be2c89b69c2b068fc378daa952ba7f163c4a11628f55a4df523b3ef",
            "0x00000000000000000000000000267645f5677350f740da9c8586ded87816d811",
            "0x00000000000000000000000000267645f5677350f740da9c8586ded87816d811"
          ],
          "data": "0x0000000000000000000000000000000000000000000000000de0b6b3a7640000",
          "blockHash": "0x5094f8f3bbf91365d1d0cf9c30e31377cf3b360d9515eb7f975f50d989a3ba7d",
          "blockNumber": "0x9c0434",
          "blockTimestamp": "0x6989df0c",
          "transactionHash": "0x731594d423c4a55d8db3bc274595148091b31e70694bef9dc0ac4555addad1b0",
          "transactionIndex": "0x65",
          "logIndex": "0x97",
          "removed": false
        },
        {
          "address": "0x7f52576bf43a55f533972a238daa2e794cb9b87a",
          "topics": [
            "0xddf252ad1be2c89b69c2b068fc378daa952ba7f163c4a11628f55a4df523b3ef",
            "0x00000000000000000000000000267645f5677350f740da9c8586ded87816d811",
            "0x00000000000000000000000000267645f5677350f740da9c8586ded87816d811"
          ],
          "data": "0x0000000000000000000000000000000000000000000000000de0b6b3a7640000",
          "blockHash": "0x5094f8f3bbf91365d1d0cf9c30e31377cf3b360d9515eb7f975f50d989a3ba7d",
          "blockNumber": "0x9c0434",
          "blockTimestamp": "0x6989df0c",
          "transactionHash": "0x731594d423c4a55d8db3bc274595148091b31e70694bef9dc0ac4555addad1b0",
          "transactionIndex": "0x65",
          "logIndex": "0x98",
          "removed": false
        }
      ],
      "logsBloom": "0x08000000000000000000000000000010000000000000000000000001000000000000000000000000000000040000000000000000000000000000000000000000000000000000000000000008000000000000000000000000000000000000000000000000000000000000000000000000000000000000000000000010000000000000000000000000000000000000000000000000000000000000000000000000000000000000000000000000000000000000000000000000000000000000000000000002000000000000000000000000000000000000000000000000000000000000000000020400000000000000000000000000000000000000000000000000",
      "type": "0x2",
      "transactionHash": "0x731594d423c4a55d8db3bc274595148091b31e70694bef9dc0ac4555addad1b0",
      "transactionIndex": "0x65",
      "blockHash": "0x5094f8f3bbf91365d1d0cf9c30e31377cf3b360d9515eb7f975f50d989a3ba7d",
      "blockNumber": "0x9c0434",
      "gasUsed": "0x7041",
      "effectiveGasPrice": "0x3c53f0f5",
      "from": "0x00267645f5677350f740da9c8586ded87816d811",
      "to": "0x7f52576bf43a55f533972a238daa2e794cb9b87a",
      "contractAddress": null
    }
  ],
  "libraries": [],
  "pending": [],
  "returns": {},
  "timestamp": 1770643214286,
  "chain": 11155111,
  "commit": "17bdbdd"
}